:100000000C94EB040C94BC070C9495070C9413050A
:100010000C9413050C9413050C9413050C94FF0B0E
:100020000C9413050C9413050C9413050C941305F0
:100030000C9413050C9413050C9413050C941305E0
:100040000C94DB130C9413050C941E080C94F80705
:100050000C9413050C9413050C9413050C941305C0
:100060000C9413050C94130500030C0F30333C3F24
:10007000C0C3CCCFF0F3FCFF000000002400270039
:100080002A0000000000250028002B0000000000CE
:1000900023002600290004040404040404040202CA
:1000A00002020202030303030303010204081020F7
:1000B0004080010204081020010204081020000002
:1000C0000008000201000003040700000000000017
:1000D0000000AED580A83FD300408D142002A1C8F7
:1000E000DA12817FD9F1DB40A4A6AFD2001980409B
:1000F00000000005072060000000000000005F0015
:10010000000007000700147F147F14242A7F2A129E
:100110002313086462364956205000080703000084
:100120001C2241000041221C002A1C7F1C2A0808B6
:100130003E080800807030000808080808000060C9
:10014000600020100804023E5149453E00427F40B5
:100150000072494949462141494D331814127F1014
:1001600027454545393C4A4949314121110907365E
:1001700049494936464949291E00001400000040FB
:1001800034000000081422411414141414004122F5
:10019000140802015909063E415D594E7C121112A4
:1001A0007C7F494949363E414141227F4141413EA0
:1001B0007F494949417F090909013E414151737F06
:1001C0000808087F00417F41002040413F017F082F
:1001D0001422417F404040407F021C027F7F040880
:1001E000107F3E4141413E7F090909063E415121B0
:1001F0005E7F09192946264949493203017F0103D7
:100200003F4040403F1F2040201F3F4038403F6359
:100210001408146303047804036159494D43007FB3
:100220004141410204081020004141417F04020184
:100230000204404040404000030708002054547826
:10024000407F284444383844444428384444287F74
:10025000385454541800087E090218A4A49C787FCE
:100260000804047800447D40002040403D007F1099
:1002700028440000417F40007C047804787C080416
:1002800004783844444438FC1824241818242418CA
:10029000FC7C08040408485454542404043F4424B7
:1002A0003C4040207C1C2040201C3C4030403C44D2
:1002B000281028444C9090907C4464544C4400088E
:1002C00036410000007700000041360800020102BC
:1002D00004023C2623263C0000060E20600000009D
:1002E000000000000000000000000000FC00000012
:1002F00000000D000000001E001E000000000000B5
:10030000000020FC20FC2000010F010F0130488874
:10031000FC88300608081F08071824A478100C0C65
:10032000020709090600B8C4443880070808050612
:10033000090000001E00000000000000000000E0B6
:100340001804020000030C102000020418E0000052
:1003500020100C0300002040F040200002010701A3
:1003600002008080F0808000000007000000000094
:100370000000000000241C000000808080808000BD
:1003800000000000000000000000000000081C0841
:1003900000000000E01806300C03000000F0080424
:1003A0000408F0030408080403001008FC0000001F
:1003B00008080F080818040404C438080C0A0908BF
:1003C0000804044464548C06080808080700C03078
:1003D00008FC00030202020F027C24242424C40629
:1003E0000808080807F088444444800708080808FB
:1003F00007040404C4340C000C0300000018A444D7
:1004000044A4180708080808077884848444F80678
:1004100008080804030000207020000000040E04F7
:10042000000000606000000000120E00000080402C
:1004300020100800000102040820202020202001B4
:1004400001010101010008102040800008040201A0
:1004500000180404C424180000000D0000F008E493
:100460001414F80304090A0A0BF088848488F00F36
:10047000000000000FFC444444A8100F08080804C2
:1004800003F80404040418070808080806FC040418
:100490000408F00F0808080403FC44444404040F53
:1004A0000808080808FC44444404040F0000000045
:1004B00000F8040484849807080808040FFC4040EE
:1004C0004040FC0F000000000F000404FC04040086
:1004D00008080F080800000004FC040608080807C4
:1004E00000FC40A01008040F000001020CFC0000FA
:1004F0000000000F0808080808FC18606018FC0FCE
:10050000000000000FFC30408000FC0F00000003E2
:100510000FF804040404F8070808080807FC84849A
:100520008484780F0000000000F804040404F80735
:1005300009090A1C27FC84848484780F00000102C6
:100540000C38444484841806080808080704040486
:10055000FC04040000000F0000FC00000000FC0789
:1005600008080808073CC00000C03C00010E0E014E
:100570000000FC000000FC0007080708070C30C062
:10058000C0300C0C030000030C001C6080601C00D9
:1005900000000F000004048464140C0C0B0808080D
:1005A000080000FE02020200003F2020200618E0A2
:1005B000000000000000030C3000020202FE0000F8
:1005C0002020203F00080402020408000000000070
:1005D0000000000000000020202020202000000259
:1005E0000408000000000000004020202020C00679
:1005F000090909090FFC40202020C00F0408080841
:1006000007C02020202040070808080804C0202038
:100610002040FC07080808040FC020202020C00745
:1006200009090909054040F844440800000F00008A
:1006300000C0202020C02019262A2A2910FC402092
:100640002020C00F000000000F000020EC00000080
:1006500008080F08080000000020EC0018202020E7
:100660001FFC00804020000F01010204080000046C
:10067000FC00000008080F080800E020C020C000AF
:100680000F0007000FE040202020C00F00000000F6
:100690000FC020202020C0070808080807E04020DD
:1006A0002020C03F0408080807C020202040E007A1
:1006B000080808043FE040202020C00F0000000090
:1006C0000040A020202040040809090A042020FC42
:1006D000202000000007080804E000000000E007F8
:1006E000080808040F00E0000000E00000030C030D
:1006F0000000E0008000E0000708070807608000B5
:100700000080600C020101020CE000000000E01318
:10071000242424221F202020A06020080C0B08087D
:10072000080000807C02020000001F202000000062
:10073000FE00000000003F00000002027C8000007C
:1007400020201F00000C020408100C000000000014
:1007500000FEFEFEFEFEFE3F3F3F3F3F3F00000D1E
:10076000172B100000000000000000000000000037
:10077000000010383838FFFF38383810000000000B
:100780000000000303000000000000000000000063
:100790000000000000000000000000000000000059
:1007A00000000000000000000090783810000000F9
:1007B0000000000000000000000000000000000039
:1007C0001038383838383838381000000000000049
:1007D0000000000000000000000000000000000019
:1007E0000000000000000000000000000000000009
:1007F0000000000000000040E0E0400000000000B9
:100800000002060E0E0E0E0E0E060200000010383C
:10081000383838383838381000000080C0E0E0E060
:10082000E0E0E0C0800000FCFAF60E0E0E0E0E0EA8
:10083000F6FAFC00EFC78300000000000083C7EF5A
:10084000007FBFDFE0E0E0E0E0E0DFBF7F0000002E
:1008500000000000000000F0F8FC000000000000B4
:100860000000000083C7EF0000000000000000004F
:10087000001F3F7F000002060E0E0E0E0E0EF6FA4F
:10088000FC00E0D0B83838383838383B170F007FD4
:10089000BFDFE0E0E0E0E0E0C08000000002060E24
:1008A0000E0E0E0E0EF6FAFC0000103838383838EE
:1008B0003838BBD7EF000080C0E0E0E0E0E0E0DFE8
:1008C000BF7F00FCF8F0000000000000F0F8FC0022
:1008D0000F173B383838383838BBD7EF00000000E6
:1008E0000000000000001F3F7F00FCFAF60E0E0E15
:1008F0000E0E0E060200000F173B38383838383815
:10090000B8D0E0000080C0E0E0E0E0E0E0DFBF7FE2
:1009100000FCFAF60E0E0E0E0E0E06020000EFD7C9
:10092000BB383838383838B8D0E0007FBFDFE0E077
:10093000E0E0E0E0DFBF7F000002060E0E0E0E0ECC
:100940000EF6FAFC0000000000000000000083C763
:10095000EF000000000000000000001F3F7F00FCCF
:10096000FAF60E0E0E0E0E0EF6FAFC00EFD7BB389E
:100970003838383838BBD7EF007FBFDFE0E0E0E041
:10098000E0E0DFBF7F00FCFAF60E0E0E0E0E0EF654
:10099000FAFC000F173B383838383838BBD7EF002F
:1009A0000080C0E0E0E0E0E0E0DFBF7F00000000AA
:1009B0000000000000000000000000000000000037
:1009C0000000000000000000000000000000000027
:1009D00000000000251411241FBECFEFD8E0DEBFB9
:1009E000CDBF12E0A0E0B1E0ECE5F6E302C0059077
:1009F0000D92AA3EB107D9F724E0AAEEB2E001C0F9
:100A00001D92A436B207E1F714E0CBEED4E004C0A7
:100A10002197FE010E94211BCA3ED107C9F70E94FF
:100A2000E0140C942C1B0C9400000895CF92DF92DC
:100A3000EF92FF920F931F93CF93DF936C017A0194
:100A40008B01C0E0D0E0CE15DF0581F0D8016D91BB
:100A50008D01D601ED91FC910190F081E02DC60150
:100A60000995892B11F02196EECF7E01C701DF9108
:100A7000CF911F910F91FF90EF90DF90CF9008954D
:100A8000CF93DF93EC019C818E81981768F48F855A
:100A90006827E881F9810084F185E02D42E0CE01EC
:100AA00009958C818F5F8C83DF91CF91089580931E
:100AB000BB0084E88093BC008091BC0087FFFCCF22
:100AC0009091B900987F81E0983231F0983129F007
:100AD000903419F080E008950895089594EA909371
:100AE000BC009091BC0097FFFCCF9091B900987F1B
:100AF00019F0880F0C94570580E0089584E98093DD
:100B0000BC008091BC0084FDFCCF0895FC01609383
:100B1000BC008091BC0087FFFCCF9091B900987F0A
:100B200090830895CF92DF92EF92FF920F931F93DD
:100B3000CF93DF93EC01C62ED42E8B89882351F0FE
:100B4000411108C084E98093BC008091BC0084FD01
:100B5000FCCF1B8AEB888E010F5E1F4FE11014C083
:100B6000FA8864EAC8010E9486058989883011F1F3
:100B7000803101F1DD2011F080E4E82EE092BB002D
:100B800064E8C8010E948605C092BB0064E8C80101
:100B90000E94860582E0D81204C08B898F5F8B8B00
:100BA00011C084E98093BC008091BC0084FDFCCF1F
:100BB0001B8A08C0FF0CF092BB0064E8C8010E94C9
:100BC0008605D8CFDF91CF911F910F91FF90EF90C5
:100BD000DF90CF9008958F929F92AF92BF92CF9265
:100BE000DF92EF92FF921F93CF93DF93CDB7DEB7E3
:100BF0002A970FB6F894DEBF0FBECDBF9091F002DA
:100C0000882309F45AC0911160C09AE0E4E0F1E051
:100C1000DE01119601900D929A95E1F79E012F5FEA
:100C20003F4F790110E0C82ED12C812C92E1992EF2
:100C30009AE7A92EB12CF701819191917F01C89E6D
:100C40009001C99E300DD89E300D1124220F331F04
:100C5000032E000C440B550BC501B4010E94E5198D
:100C6000DA01C9010197A109B1091F5F8F3F910501
:100C7000A105B10509F0ECF4F8941092B0001092BF
:100C8000B1001092B2008093B3008091B0008260F6
:100C90008093B0008091B100182B1093B100809127
:100CA0007000826080937000789481E08093F002FD
:100CB0000CC0153009F0BFCF08C0992331F0F8946B
:100CC0001092700078941092F0022A960FB6F89461
:100CD000DEBF0FBECDBFDF91CF911F91FF90EF9090
:100CE000DF90CF90BF90AF909F908F900895089520
:100CF00080E090E0089583E093E00E948D0D21E074
:100D0000892B09F420E0822F08958F929F92AF9251
:100D1000BF92CF92DF92EF92FF926B017C010E9413
:100D2000A8134B015C01C114D104E104F104F1F0FA
:100D30000E94A813DC01CB0188199909AA09BB09F3
:100D4000883E9340A105B10570F381E0C81AD1082F
:100D5000E108F10828EE820E23E0921EA11CB11CCE
:100D6000C114D104E104F104F1F2E2CFFF90EF905D
:100D7000DF90CF90BF90AF909F908F9008950F938A
:100D80001F93F89489B18C708C3009F050C0809119
:100D9000EF02882309F447C00E94A8138B019C012D
:100DA0008091EB029091EC02A091ED02B091EE02E5
:100DB000B901A801481B590B6A0B7B0B8091B40346
:100DC0009091B503A091B603B091B70348175907A6
:100DD0006A077B0790F54091330450913404609189
:100DE0003504709136048091B8039091B903092EAF
:100DF000000CAA0BBB0B840F951FA61FB71F809377
:100E0000330490933404A0933504B09336040093D4
:100E1000EB021093EC022093ED023093EE0210925D
:100E2000EA021092EF0278941F910F910895883092
:100E3000D1F781E08093EA02F6CF409133045091DC
:100E4000340460913504709136048091BA03909116
:100E5000BB03CDCF0F931F93F89489B18C708C3066
:100E600009F050C08091EA02882309F447C00E942B
:100E7000A8138B019C018091EB029091EC02A09150
:100E8000ED02B091EE02B901A801481B590B6A0BA3
:100E90007B0B8091B4039091B503A091B603B09100
:100EA000B703481759076A077B0790F58091330409
:100EB00090913404A0913504B09136044091B80368
:100EC0005091B903052E000C660B770B841B950B14
:100ED000A60BB70B8093330490933404A09335048E
:100EE000B09336040093EB021093EC022093ED02D2
:100EF0003093EE021092EA021092EF0278941F9162
:100F00000F9108958430D1F781E08093EF02F6CFFE
:100F10008091330490913404A0913504B09136044B
:100F20004091BA035091BB03CDCF1F920F920FB6E1
:100F30000F9211242F933F934F935F936F937F935F
:100F40008F939F93AF93BF93EF93FF93E091020131
:100F5000F09103010995FF91EF91BF91AF919F919E
:100F60008F917F916F915F914F913F912F910F9052
:100F70000FBE0F901F9018951F920F920FB60F92F1
:100F800011242F933F934F935F936F937F938F938E
:100F90009F93AF93BF93EF93FF93E0910001F09184
:100FA00001010995FF91EF91BF91AF919F918F91B1
:100FB0007F916F915F914F913F912F910F900FBE55
:100FC0000F901F9018956115710579F0FB01019044
:100FD0000020E9F73197AF01461B570BDC01ED917B
:100FE000FC910280F381E02D099480E090E0089567
:100FF0001F920F920FB60F9211242F933F934F938E
:101000005F936F937F938F939F93AF93BF93EF9370
:10101000FF9383E093E00E948312FF91EF91BF91D1
:10102000AF919F918F917F916F915F914F913F9180
:101030002F910F900FBE0F901F9018951F920F9237
:101040000FB60F9211242F938F939F93EF93FF93DB
:10105000E0911303F09114038081E0911903F09162
:101060001A0382FD12C0908180911C038F5F8F73E1
:1010700020911D03821751F0E0911C03F0E0ED5F19
:10108000FC4F958F80931C0301C08081FF91EF91ED
:101090009F918F912F910F900FBE0F901F901895D9
:1010A000CF92DF92EF92FF920F931F93CF93DF9334
:1010B00000D000D0CDB7DEB7082F122F4450510911
:1010C00061097E4F6A017B0187E0CC0CDD1CEE1CC0
:1010D000FF1C8A95D1F7C982DA82EB82FC8280E616
:1010E0000E946E05802F0E94570580E00E945705E0
:1010F00081E00E9457058B818370812B0E945705E8
:101100008A810E9457058C2D0E94570580E00E941D
:10111000570580E00E94570580E00E9457050F9018
:101120000F900F900F90DF91CF911F910F91FF9033
:10113000EF90DF90CF900C947E053F924F925F929C
:101140006F927F928F929F92AF92BF92CF92DF92D7
:10115000EF92FF920F931F93CF93DF93CDB7DEB73C
:1011600060970FB6F894DEBF0FBECDBF382ED62ED7
:10117000470158011C2D29013A0187E0440C551CF8
:10118000661C771C8A95D1F7C301B201A5019401B1
:101190000E94C3192D873E874F87588BA501940164
:1011A0006D857E858F8598890E948B19461A570A0E
:1011B000680A790ACD2CD12CE12CF12C97E0CC0CCB
:1011C000DD1CEE1CFF1C9A95D1F782E0D81AE108CD
:1011D000F1088D859E85AF85B889C80ED91EEA1E97
:1011E000FB1EC986DA86EB86FC864D825E826F82A4
:1011F000788689829A82AB82BC8280E60E946E05E4
:10120000832D0E9457058A810E945705882D0E94D0
:1012100057058B858370812B0E9457058A850E9414
:1012200057058C2D0E945705D501C40188279927A1
:10123000AF70BB272CE0B695A795979587952A9513
:10124000D1F7B301A201442755276F707727862B6A
:101250000E9457058E810E945705842D0E945705D4
:1012600060960FB6F894DEBF0FBECDBFDF91CF9171
:101270001F910F91FF90EF90DF90CF90BF90AF90B4
:101280009F908F907F906F905F904F903F900C94C5
:101290007E05CF93DF93D82FC62F80E60E946E0580
:1012A0008D2F0E9457058C2F0E945705DF91CF91FB
:1012B0000C947E051F93CF93DF93FC0180818F3FB9
:1012C00099F09381961781F0218191E0662319F0BE
:1012D000213019F403C0213009F490E0162FEF01FA
:1012E000692F0E943D131B83DF91CF911F910895B9
:1012F000CF93DF93EC0188818F3F49F061E00E943A
:101300006C136A81CE01DF91CF910C945A09DF9161
:10131000CF91089561E083E10E943D1361E082E195
:101320000E943D138CE58093B8001092B9008FEFB6
:101330008093BB00109264000895DC01ED91FC9154
:101340000084F185E02D40E009940F931F93CF9323
:101350008C01FC0164838085C62FC80F6C2F6F70D1
:10136000C8010E949D096C2F62956F706061C80171
:10137000CF911F910F910C949D09FC018781869557
:1013800086958695681740F465839385690F677025
:10139000606BCF010C949D0908951F93CF93DF9349
:1013A000EC01142F8E81681718F4CE010E94A50954
:1013B000612FCE01DF91CF911F910C94BD09CF9287
:1013C000DF92EF92FF920F931F93CF93DF93EC0185
:1013D000F62EC42ED22E8F81869586958695081777
:1013E00010F00FEF080F1D2D011780F0412F6F2D0A
:1013F000CE010E94CD09EF2CCE1430F06F85CE01C6
:101400000E944005E394F8CF1F5FEECF4D2D6F2D66
:10141000CE01DF91CF911F910F91FF90EF90DF9060
:10142000CF900C94CD092F923F924F925F926F9282
:101430007F928F929F92AF92BF92CF92DF92EF9264
:10144000FF920F931F93CF93DF93CDB7DEB729970A
:101450000FB6F894DEBF0FBECDBFDC011D962D91F7
:101460003C911E972115310509F462C1998788873F
:10147000F9013296449031967491E72EF12CB7E041
:10148000EB0EF11C93E0F594E7949A95E1F7EA826C
:101490003196A4913196E4916A1758F0462F50E0A6
:1014A0008E2F90E0FC01EA0FF11D4E175F070CF440
:1014B00076C06D3061F4E885F9858681882309F46A
:1014C00034C160E0888599850E94A5092EC16A30E3
:1014D00009F02EC1A885B98516968C911697882398
:1014E00021F060E0CD010E94A509E885F985008919
:1014F0000E9DE02C11242781269526952695658141
:101500006E0D8E2D821B860F9485992309F409C1D7
:1015100018160CF006C1A885B9851B969C911B97DF
:10152000890F87701B968C931B972E1915962C93F9
:1015300015971D96ED91FC911E97309769F03396A3
:10154000E491F0E0379683E0F595E7958A95E1F729
:101550000E9FE02D112401C0E0E00FEF020F0E0FEF
:10156000E885F985468141506481CF010E94DF09F9
:10157000A885B9851C968C911C97813009F0D5C03F
:101580001B966C911B97660F660F660F6F731A960A
:101590006C931A976064CD010E949D09C6C0A90191
:1015A0004A5F5F4F6A1BA885B9851996FC91199708
:1015B0005096EC91FE9FE02D1124EF83F901A49148
:1015C0003196249130E03A2B2230310570F44E9C54
:1015D000C0014F9C900D1124689F8001699F100DE0
:1015E0001124040F151F312C22C0777021F028E040
:1015F000322E371A01C0312CFA0120E0A0E0B0E011
:10160000261731F03491A30FB11D2F5F3196F8CF1B
:10161000FA01E20FF11D4490EA9E8001EB9E100D4D
:10162000FA9E100D1124080F191F040F151FA8850D
:10163000B9851496BC91BB83E885F985F581FC8357
:10164000842D90E09E838D83812C912CC12CD12CF4
:10165000C9829A81C91608F063C0212C3601BFEFF8
:101660006B1A7B0AE885F9858089281608F050C036
:10167000F981F11102C0222051F0A885B985159693
:101680004C9115974F5F6B81CD010E94CD09A12C24
:10169000B12CA41410F0B12C2FC0F401EA0DFB1DE5
:1016A000E00FF11F5490332061F0E614F70449F481
:1016B000E52DF0E0032C02C0F595E7950A94E2F7DA
:1016C0005E2EE885F9858089823069F4E52D211048
:1016D000E295EF70F0E0E859FF4F5490652D888552
:1016E00099850E944005652D888599850E94400551
:1016F000FFEFAF1ABF0ACDCF8F81B81639F060E087
:10170000888599850E944005B394F6CF2394AACF8B
:101710009FEFC91AD90AAD81BE818A0E9B1E98CF50
:101720006C81888599850E94BD0981E090E002C0A6
:1017300080E090E029960FB6F894DEBF0FBECDBFD3
:10174000DF91CF911F910F91FF90EF90DF90CF909D
:10175000BF90AF909F908F907F906F905F904F90D1
:101760003F902F900895CF93DF932B9A809141045F
:101770000E94EB05C3EDD3E06D897E8980E090E0A7
:101780000E9485062B9880E00E94EB056D897E897A
:1017900080E090E00E9485060E94CD13609337049C
:1017A000709338048093390490933A04DF91CF9179
:1017B0000895CF93DF932B9A809141040E94EB050B
:1017C000C3EDD3E06B897C8980E090E00E948506C0
:1017D0002B9880E00E94EB056B897C8980E090E08B
:1017E0000E9485060E94CD136093370470933804DD
:1017F0008093390490933A04DF91CF9108951F921A
:101800000F920FB60F9211248F939F9395B184E09E
:10181000892785B99F918F910F900FBE0F901F90D0
:1018200018950F931F93CF9361E086E00E943D13BC
:1018300080914504909146048330910528F0880FEB
:10184000991F04970197F1F785E00E9414138C010A
:10185000C1E0892B09F0C0E060E086E00E943D1302
:10186000012B61F468E072E083E093E00E94E307FB
:101870006CE072E083E093E00E94E3078C2FCF914D
:101880001F910F9108950F931F93CF9361E086E00E
:101890000E943D1380914504909146048330910548
:1018A00028F0880F991F04970197F1F784E00E94B0
:1018B00014138C01C1E0892B09F0C0E060E086E0E0
:1018C0000E943D13012B61F46FE072E083E093E02E
:1018D0000E94E3076CE072E083E093E00E94E3077C
:1018E0008C2FCF911F910F9108954F925F926F921D
:1018F0007F928F929F92AF92BF92CF92DF92EF92A0
:10190000FF921F93CF93DF931F92CDB7DEB78091E5
:10191000D303882329F021E08091E303811101C0E2
:1019200020E08090DE039090DF03A090E003B09071
:10193000E1038091E403C0905704D09058048111D2
:101940000EC0C6010D2C000CAA0BBB0B8257944F86
:10195000A548BF4F880D991DAA1DBB1D18C0A60123
:101960000D2C000C660B770B4257544F65487F4F88
:10197000DB01CA0188199909AA09BB09B7FF07C089
:10198000B095A095909581959F4FAF4FBF4F222363
:1019900009F472C04601DD0CAA08BB082EE8820ECD
:1019A0002BE0921E2AE7A21EB11C409141045091E7
:1019B0004204052E000C660B770B840E951EA61EA6
:1019C000B71EC12CD12C760119824090F3035090A0
:1019D000F4036090F5037090F60311E04C145D047D
:1019E0006E047F0409F410E04091EF035091F0037E
:1019F0006091F1037091F20384179507A607B7076A
:101A000061F08093EF039093F003A093F103B09300
:101A1000F203CE0101960E94ED104C145D046E0499
:101A20007F0469F48091F7039091F803A091F90382
:101A3000B091FA0388169906AA06BB06B1F0C092C7
:101A4000F303D092F403E092F503F092F603809250
:101A5000F7039092F803A092F903B092FA03BE0143
:101A60006F5F7F4F812F0E94220E6981662399F05C
:101A700081EB0E9449090FC00D2C000CEE08FF08F5
:101A80002EE8C20E2BE0D21E2AE7E21EF11C812CAA
:101A9000912C540199CF0F90DF91CF911F91FF901E
:101AA000EF90DF90CF90BF90AF909F908F907F90FE
:101AB0006F905F904F900895FC01538D448D252FBA
:101AC00030E0842F90E0821B930B541710F0CF96D8
:101AD000089501970895FC01918D828D981761F00A
:101AE000828DDF01A80FB11D5D968C91928D9F5F55
:101AF0009F73928F90E008958FEF9FEF0895FC0100
:101B0000918D828D981731F0828DE80FF11D858DB2
:101B100090E008958FEF9FEF0895FC01918D228D45
:101B2000892F90E0805C9F4F821B91098F739927CA
:101B3000089580E090E0892B29F00E947B068111B6
:101B40000C9400000895833081F028F4813099F0DE
:101B50008230A1F008958730A9F08830B9F0843040
:101B6000D1F4809180008F7D03C0809180008F77B9
:101B700080938000089584B58F7702C084B58F7DEF
:101B800084BD08958091B0008F7703C08091B0002C
:101B90008F7D8093B00008950F931F938091DC0395
:101BA0009091DD0397FD28C02EE0289FF001299F2A
:101BB000F00D1124E25DFE4F85819681A781B085ED
:101BC000181619061A061B06BCF44091DE03509144
:101BD000DF036091E0037091E103481759076A073A
:101BE0007B0754F481E00181128123813481401705
:101BF0005107620773070CF480E01F910F9108955D
:101C0000CF93C82F803120F4811103C06EEA12C037
:101C1000CFE080910203811105C06FEA80EA93E072
:101C20000E949D0961E880EA93E00E949D096C2F63
:101C30006295607F80EA93E00E949D09C093020351
:101C4000CF9108952F923F924F925F926F927F9221
:101C50008F929F92AF92BF92CF92DF92EF92FF92BC
:101C60000F931F93CF93DF93CDB7DEB766970FB671
:101C7000F894DEBF0FBECDBF89834B018091F30383
:101C80009091F403A091F503B091F603892B8A2B70
:101C90008B2B41F460E881E10E9449091092020413
:101CA000109201048091F7039091F803A091F90339
:101CB000B091FA03892B8A2B8B2B41F460E882E1E7
:101CC0000E9449091092040410920304C090F30387
:101CD000D090F403E090F503F090F603C114D10422
:101CE000E104F10409F46EC10981002309F4EFC095
:101CF00060E079EE84EA95E3A70196010E94C3199A
:101D000029013A01263031054105510510F01D8A9F
:101D100009C060E881E10E94490910920204109212
:101D2000010442C22DE2421621E052066104710410
:101D300040F03D893F5F3D8B76946794579447947C
:101D4000F1CF4D89411102C0E89440F8A1E0B0E024
:101D50000D8802C0AA0FBB1F0A94E2F7A7019601E3
:101D60000E942D1A9B01AC01C301B2010E948B1984
:101D7000698B7A8B8B8B9C8B8091EB039091EC031E
:101D8000A091ED03B091EE038C019D0140E050E085
:101D9000BA0189831A832B833C834D835E836F83CF
:101DA000788769897A898B899C892AE030E040E0CC
:101DB00050E00E948E1A5801CB80DC80E12CF12C7F
:101DC00000E010E00E94BB1A2E8B49895A896B896A
:101DD0007C899A01AB0160E070E0CB0129873A87EA
:101DE0004B875C876D877E878F87988B2E8930E045
:101DF00040E050E060E070E080E090E00E94351A42
:101E0000EAE0AE2EB12CC12CD12C0E94BB1A590194
:101E10006A017B018C0129853A854B855C8560E0F0
:101E200070E080E090E00E94181BF6EFAF2EBB241C
:101E3000BA94AFE9CA2ED12CE12CF12C00E010E0CD
:101E40000E94351AA980BA80CB80DC800E94BB1A20
:101E5000C12CEE24EA94FE2C0FE010E06E8982E2A1
:101E60000E949D088091010490910204A0E0B0E0DE
:101E7000481659066A067B0629F4809106045D8996
:101E80005817C9F02D892295207FB301A20182E362
:101E90000E945008609109046C6681E10E94490922
:101EA00050920204409201046D8960930604D401AB
:101EB0008C9180688C9309891A892B893C890093BD
:101EC000FB031093FC032093FD033093FE03C090AB
:101ED000F703D090F803E090F903F090FA03C114EF
:101EE000D104E104F10409F45FC18090FB039090F8
:101EF000FC03A090FD03B090FE03C501B401A7014F
:101F000096010E94C319283031054105510508F496
:101F100079C01982213431054105510560F01981DC
:101F20001F5F1983CC0CDD1CEE1CFF1C56954795DA
:101F300037952795EFCFC501B401A70196010E94FF
:101F4000C31929872FEF3FEF4FE050E00E948E1A10
:101F50001601270156016201E12CF12C00E010E08E
:101F60000E94BB1A49015A01C980C29420EFC222C3
:101F700081149104A104B10429F4E12CF12C87010E
:101F8000E39405C0EE24EA94FE2C0FE010E0A501D6
:101F9000940169858AE30E949D0889288A288B28F4
:101FA00011F48CE401C08CE060910A046062682B3B
:101FB00082E10E94490981E090E0909304048093BB
:101FC0000304F2C0C090F703D090F803E090F90347
:101FD000F090FA03C114D104E104F10409F4E4C05F
:101FE00060E079EE84EA95E3A70196010E94C319A7
:101FF00029013A0126E0421651046104710410F0EF
:10200000198A09C060E882E10E944909109204041B
:1020100010920304C9C03DE2431631E05306610447
:10202000710440F049894F5F498B769467945794C7
:102030004794F1CF5989511102C0E89440F8A1E0CA
:10204000B0E0098802C0AA0FBB1F0A94E2F7A701FB
:1020500096010E942D1A9B01AC01C301B2010E949E
:102060008B1969877A878B879C878091EB03909186
:10207000EC03A091ED03B091EE038C019D0140E0D3
:1020800050E0BA0189831A832B833C834D835E839E
:102090006F83788769857A858B859C852AE030E017
:1020A00040E050E00E948E1A5801CB80DC80E12C89
:1020B000F12C00E010E00E94BB1A2D8B49855A8557
:1020C0006B857C859A01AB0160E070E0CB012987CC
:1020D0003A874B875C876D877E878F87988B2D89A2
:1020E00030E040E050E060E070E080E090E00E948E
:1020F000351AEAE0AE2EB12CC12CD12C0E94BB1AAD
:1021000059016A017B018C0129853A854B855C85E3
:1021100060E070E080E090E00E94181BF6EFAF2EC8
:10212000BB24BA94AFE9CA2ED12CE12CF12C00E0EB
:1021300010E00E94351AA980BA80CB80DC800E9412
:10214000BB1AC12CEE24EA94FE2C0FE010E06D893E
:1021500082E20E949D088091030490910404A0E013
:10216000B0E0481659066A067B0629F480910704F8
:1021700059895817C9F029892295207FB301A201F6
:102180008AE30E94500860910A046C6682E10E9412
:10219000490950920404409203046989609307043A
:1021A000D4018C9180688C9366960FB6F894DEBF4C
:1021B0000FBECDBFDF91CF911F910F91FF90EF9098
:1021C000DF90CF90BF90AF909F908F907F906F9057
:1021D0005F904F903F902F9008954F925F926F9233
:1021E0007F928F929F92AF92BF92CF92DF92EF92A7
:1021F000FF920F931F93CF93DF93CDB7DEB7629714
:102200000FB6F894DEBF0FBECDBF4C01C090EF03F8
:10221000D090F003E090F103F090F203C114D104E8
:10222000E104F10489F060E079EE84EA95E3A70126
:1022300096010E94C31929013A0126303105410552
:10224000510510F0198A09C060E880E10E9449092F
:10225000109200041092FF03C9C01DE2411611E064
:1022600051066104710440F029892F5F298B76940F
:10227000679457944794F1CF3989311102C0E8949B
:1022800040F8A1E0B0E0098802C0AA0FBB1F0A9481
:10229000E2F7A70196010E942D1A9B01AC01C30130
:1022A000B2010E948B1969877A878B879C878091FE
:1022B000EB039091EC03A091ED03B091EE038C0140
:1022C0009D0140E050E0BA0189831A832B833C834F
:1022D0004D835E836F83788769857A858B859C853E
:1022E0002AE030E040E050E00E948E1A5801CB8096
:1022F000DC80E12CF12C00E010E00E94BB1A2A8B5C
:1023000049855A856B857C859A01AB0160E070E058
:10231000CB0129873A874B875C876D877E878F87BC
:10232000988B2A8930E040E050E060E070E080E087
:1023300090E00E94351AEAE0AE2EB12CC12CD12CCF
:102340000E94BB1A59016A017B018C0129853A85DB
:102350004B855C8560E070E080E090E00E94181B97
:10236000F6EFAF2EBB24BA94AFE9CA2ED12CE12CE4
:10237000F12C00E010E00E94351AA980BA80CB80D1
:10238000DC800E94BB1AC12CEE24EA94FE2C0FE0E4
:1023900010E06A898AE10E949D088091FF03909174
:1023A0000004A0E0B0E0481659066A067B0629F44E
:1023B0008091050459895817C9F029892295207FF1
:1023C000B301A2018AE20E945008609108046C6483
:1023D00080E10E944909509200044092FF036989FC
:1023E00060930504D4018C9180628C9362960FB641
:1023F000F894DEBF0FBECDBFDF91CF911F910F913B
:10240000FF90EF90DF90CF90BF90AF909F908F9014
:102410007F906F905F904F9008950F93CF93DF93CD
:10242000EC011B861A8660E40E949D090F810695C7
:102430000695069501504E81415020E060E0CE01A6
:102440000E94DF09DF91CF910F9108958F929F92A3
:10245000AF92BF920F931F93CF93DF93CDB7DEB7A9
:10246000A1970FB6F894DEBF0FBECDBF19A24230C0
:1024700008F44AE08E010F5D1F4F842E912CA12C91
:10248000B12CA50194010E94C319E62FB901CA011C
:1024900001501109EA3014F4E05D01C0E95CD80193
:1024A000EC93232B242B252B61F7B80180EA93E0D2
:1024B0000E94E307A1960FB6F894DEBF0FBECDBF12
:1024C000DF91CF911F910F91BF90AF909F908F9010
:1024D0000895682F80EA93E00C94130A9093AE035A
:1024E0008093AD03009741F0FC01249131968491D3
:1024F00090E0922B019721F081E08093A903089549
:102500001092A9030895FC01848DDF01A80FB11D6D
:10251000A35ABF4F2C91848D90E001968F73992719
:10252000848FA689B7892C93A089B1898C918370F7
:1025300080648C93938D848D981306C00288F389F0
:10254000E02D80818F7D80830895EF92FF920F931D
:102550001F93CF93DF93EC0181E0888F9B8D8C8D4F
:10256000981305C0E889F989808185FD26C0F62E7B
:102570000B8D10E00F5F1F4F0F731127E02E8C8D16
:10258000E8120CC00FB607FCFACFE889F989808100
:1025900085FFF5CFCE010E948312F1CF8B8DFE0116
:1025A000E80FF11DE35AFF4FF0829FB7F8940B8FAD
:1025B000EA89FB89808180620AC09FB7F894EE891E
:1025C000FF896083E889F9898081837080648083D2
:1025D0009FBF81E090E0DF91CF911F910F91FF901D
:1025E000EF900895CF93DF93EC01888D8823C9F095
:1025F000EA89FB89808185FD05C0A889B9898C910C
:1026000086FD0FC00FB607FCF5CF808185FFF2CFA6
:10261000A889B9898C9185FFEDCFCE010E948312E4
:10262000E7CFDF91CF910895CF93DF93282F30E04C
:10263000F901E254FF4F8491F901E655FF4FD4911F
:10264000F901EA56FF4FC491CC2391F081110E9409
:10265000A30DEC2FF0E0EE0FFF1FE457FF4FA59105
:10266000B491EC91ED2381E090E021F480E002C090
:1026700080E090E0DF91CF9108951F93CF93DF9397
:10268000282F30E0F901E254FF4F8491F901E6551B
:10269000FF4FD491F901EA56FF4FC491CC23C1F00A
:1026A000162F81110E94A30DEC2FF0E0EE0FFF1FFB
:1026B000EE57FF4FA591B4919FB7F894111104C044
:1026C0008C91D095D82302C0EC91DE2BDC939FBF78
:1026D000DF91CF911F910895CF93DF9390E0FC019C
:1026E000E655FF4F2491FC01EA56FF4F8491882361
:1026F00061F190E0880F991FFC01E858FF4FC591E8
:10270000D491FC01EE57FF4FA591B491611109C01E
:102710009FB7F8948881209582238883EC912E239B
:102720000BC0623061F49FB7F8948881322F3095E6
:1027300083238883EC912E2B2C939FBF06C08FB7E9
:10274000F894E8812E2B28838FBFDF91CF910895D5
:102750003FB7F8948091F5029091F602A091F702AC
:10276000B091F80226B5A89B05C02F3F19F001963D
:10277000A11DB11D3FBFBA2FA92F982F8827820F07
:10278000911DA11DB11DBC01CD0143E0660F771F56
:10279000881F991F4A95D1F708952FB7F894609133
:1027A000F1027091F2028091F3029091F4022FBF36
:1027B00008950E94271B1F920F920FB60F921124AB
:1027C0002F933F938F939F93AF93BF938091F10289
:1027D0009091F202A091F302B091F402309163045F
:1027E00026E0230F2D3720F40296A11DB11D05C050
:1027F00029E8230F0396A11DB11D20936304809344
:10280000F1029093F202A093F302B093F40280914C
:10281000F5029091F602A091F702B091F8020196AC
:10282000A11DB11D8093F5029093F602A093F702CB
:10283000B093F802BF91AF919F918F913F912F91EB
:102840000F900FBE0F901F9018951F93CF93DF939B
:10285000E3E0F3E01382128288EE93E0A0E0B0E0C0
:1028600084839583A683B78382E191E091838083FB
:1028700085EC90E09587848784EC90E09787868745
:1028800080EC90E0918B808B81EC90E0938B828B3D
:1028900082EC90E0958B848B86EC90E0978B868B16
:1028A000118E128E138E148EEBE0F4E013821282DE
:1028B000148616861586178611E0108B84E291E047
:1028C00091838083E0EAF3E01382128214861686F5
:1028D00015861786108B91838083EFE1F4E01382D5
:1028E00012821486168615861786108B9183808334
:1028F00080E89FEDA7E1B0E18093EB039093EC03B8
:10290000A093ED03B093EE0387E490E09093BB03B4
:102910008093BA038CEA91E09093B9038093B80353
:1029200086E091EDA1E0B0E08093B4039093B5030D
:10293000A093B603B093B703C3EDD3E088E89FE755
:10294000ABE6B0E089839A83AB83BC831882188A94
:102950001A8619868B879C87AD87BE87198A0E9445
:10296000CC0D8F87EDECF3E089E08083118288E164
:102970009CEFAFEFBFEF82839383A483B583E9EC31
:10298000F3E02DE02083118312822FEF2383E5EC07
:10299000F3E03CE03083118312822383ECEBF3E01D
:1029A00024E1208326E021832AEA30E03383228356
:1029B00085839683A783B087DF91CF911F91089578
:1029C000CF93DF93CDB7DEB72A970FB6F894DEBF6B
:1029D0000FBECDBF789484B5826084BD84B581601C
:1029E00084BD85B5826085BD85B5816085BD8091DA
:1029F0006E00816080936E00109281008091810052
:102A00008260809381008091810081608093810049
:102A1000809180008160809380008091B10084600B
:102A20008093B1008091B00081608093B00080916C
:102A30007A00846080937A0080917A00826080932B
:102A40007A0080917A008E7F80937A0080917A005C
:102A5000806880937A001092C10082E290E00E9428
:102A600068198131924049F442E250E060E070E040
:102A70008BE394E00E9458191EC0ACE3B1E0EBE395
:102A8000F4E08DE594E012962D913C9113972193FB
:102A900031931C968E179F07B1F742E250E060E039
:102AA00070E08BE394E00E946E1961E172E082E2D3
:102AB00090E00E94861989EC93E00E94780985ECE9
:102AC00093E00E947809239A8091CD038F3F19F0FB
:102AD00062E00E946C138091BC038F3F19F060E0AC
:102AE0000E946C1361E081E10E946C1361E080E15F
:102AF0000E946C1361E08FE00E946C1361E08EE035
:102B00000E946C13229A60E085E10E946C1361E0E0
:102B100086E00E946C1360E086E00E943D1360E056
:102B200084E00E946C1360E085E00E946C130E94B8
:102B30008A090E948A0910920804109209041092CE
:102B40000A0460E880E10E94490960E881E10E948E
:102B5000490960E882E10E944909209159043091B5
:102B60005A04C901330FAA0BBB0B9C01AD01205CB9
:102B7000374842485E4FAAE0B0E00E94221A6093B4
:102B8000EB037093EC038093ED039093EE03CE017F
:102B900001960E94ED10BE016F5F7F4F81E00E94A1
:102BA000220E60EA81EB0E944909F89460E082E01D
:102BB0000E946C1360E083E00E946C138AE297E04D
:102BC000909301018093000180916900836080935C
:102BD0006900E89A8FEB96E09093030180930201DD
:102BE000809169008C6080936900E99A78941092D2
:102BF000B3038CE38093B2031092B90080E2809318
:102C0000B8001092A4031092A503EBEEF0E08591BA
:102C10009491E82EEDEEF0E0F490EEEEF0E0E49129
:102C2000E093A603EFEEF0E0E491E093A703E0EF7A
:102C3000F0E0E491E093A8038C01802F8E198F15AA
:102C400048F4F801649180EA93E00E949D090F5FC7
:102C50001F4FF3CF80EA93E00E940D1280EA93E0C9
:102C60000E940D121092F9021092FA021092FB02C9
:102C70001092FC028FEF8093FD022FEF30E0309333
:102C8000FF022093FE021092000380930103109232
:102C9000020311E088EE282E83E0382E9AE0892E78
:102CA000912CA12CB12C20E8422E26E9522E28E9A5
:102CB000622E712C0E94CD1363337105810591053D
:102CC00008F463C2C0903304D0903404E09035041B
:102CD000F0903604109233041092340410923504AC
:102CE00010923604C114D104E104F10409F45AC06D
:102CF0008091D303811142C00E94CC0D082F809196
:102D0000DE039091DF03A091E003B091E103C80ED0
:102D1000D91EEA1EFB1EC092DE03D092DF03E092B2
:102D2000E003F092E1038091DC039091DD032EE05B
:102D3000289FF001299FF00D1124E25DFE4F818153
:102D40009281A381B481C816D906EA06FB064CF02D
:102D500081859285A385B4858C159D05AE05BF053B
:102D600044F48093DE039093DF03A093E003B093D9
:102D7000E1030E94CC0D08138093E20380915D046F
:102D8000882331F080913D040E94000E10925D0472
:102D90000E94CD1360935F0470936004809361047C
:102DA00090936204E0904B04F0904C04009147042F
:102DB000F7E4F0937C0080917A00806480937A003D
:102DC00080917A0086FDFCCF209178008091790077
:102DD00030E0382BA0914904B0914A048091470417
:102DE00090914804A81BB90B11960E94041A20E088
:102DF00034E040E050E00E94E519020F8091E503C5
:102E00000817D9F00093E503602F70E080EB94E0A1
:102E10000E94AF197093E7036093E603E69EC0013A
:102E2000E79E900DF69E900D11246AE070E00E94DE
:102E30009B197093E9036093E8030E94750C61E0AD
:102E40008091DC039091DD03892B09F060E081E142
:102E50000E943D1361E08091DC039091DD030197B6
:102E600009F060E080E10E943D1361E08091DC03A5
:102E70009091DD03029709F060E08FE00E943D131E
:102E800061E08091DC039091DD03039709F060E03D
:102E90008EE00E943D13C090DE03D090DF03E090EF
:102EA000E003F090E1038091F9029091FA02A09181
:102EB000FB02B091FC02C816D906EA06FB0609F42B
:102EC00093C0C701B601A50194010E94E519CA018A
:102ED000B901A50194010E94E519605D6987C701E8
:102EE000B60124E630E040E050E00E94E519CA0156
:102EF000B901A50194010E94E519605D68870EE2A1
:102F00000F83C701B60128EE33E040E050E00E9495
:102F1000E519CA01B901A50194010E94E519605D96
:102F20006E83C701B60120E137E240E050E00E9425
:102F3000E519CA01B901A50194010E94E519605D76
:102F40006D83C701B60120EA36E841E050E00E94F7
:102F5000E519CA01B901A50194010E94E519605D56
:102F60006C830B83C701B60120E432E44FE050E0EC
:102F70000E94E519CA01B901A50194010E94E51951
:102F8000605D6A83C701B601A30192010E94E51941
:102F900012161306140615061CF4205D298302C0C0
:102FA0008AE389831A868DE597E00E946E1243E0DA
:102FB00061E080EA93E00E94CD09BE016F5F7F4F20
:102FC00080EA93E00E94E3078091DE039091DF03A3
:102FD000A091E003B091E1038093F9029093FA028B
:102FE000A093FB02B093FC022091DC033091DD033F
:102FF0008091FE029091FF022817390769F49091A1
:10300000D3038091FD02981307C09091E203809151
:103010000103981709F45BC087ED92E00E946E12DD
:1030200040E064E180EA93E00E94CD098091D303FF
:10303000882309F401C163E172E080EA93E00E9411
:10304000E3078091DC039091DD032EE0289FF001DF
:10305000299FF00D1124E25DFE4F008140E060E504
:1030600080EA93E00E94CD09802F90E0843691059C
:103070001CF480E20E946912602F70E080E090E012
:103080004AE00E9426128DE60E94691240E069E340
:1030900080EA93E00E94CD098091E203882309F43D
:1030A000CEC069E172E080EA93E00E94E30780917C
:1030B000D3038093FD028091E2038093010380910A
:1030C000DC039091DD039093FF028093FE029091C8
:1030D000E50380910003981719F181EF90E00E94B9
:1030E0006E1247E06BE280EA93E00E94CD09809186
:1030F000E5038A3018F480E20E9469126091E503CA
:1031000070E080E090E04AE00E9426126FE172E0F9
:1031100080EA93E00E94E3078091E5038093000337
:1031200080913B0490913C041816190674F50E9496
:10313000CD13C0905F04D0906004E0906104F090E3
:103140006204AB01BC014C195D096E097F09209135
:103150003B0430913C04229DC001239D900D329D83
:10316000900D1124092E000CAA0BBB0B8417950798
:10317000A607B70750F480915D04811106C08091C5
:103180003F040E94000E10935D048091D3038111CF
:1031900006C08091510490915204892BD9F08091FE
:1031A000430490914404892B09F473C080915E0418
:1031B000882309F447C080915E04813009F059C02A
:1031C0000E94D90B0E94110C882309F44BC082E0A5
:1031D00080935E048091E303882359F10E94CD130C
:1031E000C0903704D0903804E0903904F0903A044D
:1031F000AB01BC014C195D096E097F098091530434
:1032000090915404092E000CAA0BBB0B8417950750
:10321000A607B70770F41092E3036091D30385EC1F
:1032200093E00E945A098091D303811102C00E9449
:10323000750C0E94990D3ECD66E172E0FECE6CE108
:1032400072E031CF0E94430C882319F010935E0482
:10325000B2CF0E94110C882309F4ADCF82E0809395
:103260005E04A9CF0E94430C882381F010935E0472
:10327000B1CF823009F0AECF0E94B30B0E94430C55
:103280008111F4CF0E94110C8111A1CF10925E0424
:10329000A1CF0E94430C882319F00E94D90B9ACF2A
:1032A0000E94110C882309F495CF0E94B30B92CF92
:1032B000DC01CB01FC01F999FECF06C0F2BDE1BDF6
:1032C000F89A319600B40D9241505040B8F70895E5
:1032D000A8E1B0E042E050E00C945A19DC01CB01C7
:1032E00003C02D910E94791941505040D0F70895A4
:1032F000262FF999FECF1FBA92BD81BD20BD0FB612
:10330000F894FA9AF99A0FBE019608950E947819D6
:10331000272F0C947919DB018F939F930E94221A17
:10332000BF91AF91A29F800D911DA39F900DB29F61
:10333000900D11240895AA1BBB1B51E107C0AA1FC1
:10334000BB1FA617B70710F0A61BB70B881F991F46
:103350005A95A9F780959095BC01CD01089597FBEA
:10336000072E16F4009407D077FD09D00E949B1910
:1033700007FC05D03EF4909581959F4F0895709578
:1033800061957F4F0895A1E21A2EAA1BBB1BFD0178
:103390000DC0AA1FBB1FEE1FFF1FA217B307E40734
:1033A000F50720F0A21BB30BE40BF50B661F771F8C
:1033B000881F991F1A9469F760957095809590956C
:1033C0009B01AC01BD01CF010895052E97FB1EF4B2
:1033D00000940E94FC1957FD07D00E94C31907FCF6
:1033E00003D04EF40C94FC195095409530952195DE
:1033F0003F4F4F4F5F4F0895909580957095619521
:103400007F4F8F4F9F4F08950E940C1A332312F461
:103410008A1B9B0B0C941D1AA29FB001B39FC00185
:10342000A39F700D811D1124911DB29F700D811DF0
:103430001124911D08950E940C1AB7FF0895821B54
:10344000930B08950E940C1AA59F900DB49F900DA8
:10345000A49F800D911D11240895B7FF0C94221A8A
:103460000E94221A821B930B0895DF93CF931F9320
:103470000F939A9DF02D219FF00D8B9DF00D8A9D4D
:10348000E02DF10D039FF00D029FE00DF11D4E9D0B
:10349000E00DF11D5E9DF00D4F9DF00D7F936F933C
:1034A000BF92AF925F934F93D5010E940C1A8B018C
:1034B000AC01D7010E940C1AEB01E80FF91FD601ED
:1034C0000E94851A2F913F91D6010E940C1AC60FB7
:1034D000D71FE81FF91FAF91BF910E94851A2F9146
:1034E0003F910E940C1AC60FD71FE81FF91FD60183
:1034F0000E940C1AE60FF71F9801BE01CF0111249C
:103500000F911F91CF91DF9108950E940C1A460FE1
:10351000571FC81FD91F08F431960895E894DF9308
:10352000CF93FC01DB010E940C1A7F936F93E9019A
:103530009A01AC01BF93AF933F932F93DF010E9499
:103540000C1A26F46C1B7D0B820B930B9E01EB0176
:10355000FC010E94851AAF91BF912F913F910E946B
:10356000851ABE01CF01F9012F913F91CF91DF91D3
:103570000895689401C0E8948F929F92CF93DF934F
:103580000E94C71ADF91CF919F908F900895882451
:103590009924F401E401B0E49F93AA279A158B04BF
:1035A0009C04ED05FE05CF05D007A10798F4AD2FCB
:1035B000DC2FCF2FFE2FE92D982C892E982F872FC7
:1035C000762F652F542F432F322F2227B85031F7F3
:1035D000BF9127C01B2EBF91BB27220F331F441F53
:1035E000551F661F771F881F991F881C991CEE1F87
:1035F000FF1FCC1FDD1FAA1FBB1F8A149B04EC05F5
:10360000FD05CE05DF05A007B10748F08A189B0825
:10361000EC09FD09CE09DF09A00BB10B21601A945A
:10362000E1F62EF49401AF01BE01CD01000C089526
:103630002A193B094C095D096E097F09800B910B22
:103640000895EE0FFF1F0590F491E02D099481E09D
:0C36500090E0F8940C942C1BF894FFCF31
:10365C0015051505010008004000000100040000DC
:10366C000000A51216055C0DF2128D0D6B0D7F0D71
:10367C0000000000130A160578067706920528C08C
:10368C00CF6A00887F6B0000DD6D00000A00080027
:10369C0000003C00010024020B00070001000F0099
:1036AC00010032020C00010000000F0001003E027C
:1036BC001400BC022C01D0070A00490215000000BE
:1036CC0000000100010051021600060002001E005D
:1036DC0001005802170006000100140001006802E6
:1036EC0018001900050023000100750219001E00C6
:1036FC0014002800010082021A001E0014003C0075
:10370C00010091021B0046001E00780001009E0281
:10371C001E000100000001000100A9021F0020038F
:10372C006400D0070A00B00229000000F0D810276E
:10373C000A00BF022A000000F0D810270A00C902B4
:10374C006300B80BE0B1204E0500D302000000006E
:10375C00000000000000DF02646168000D0A0064D4
:10376C006974005458005258004357002020002020
:10377C0077706D005057522044574E2044454C41B1
:10378C005900425249474854204849474800425240
:10379C0049474854204C4F5700435720544F4E45EF
:1037AC000049414D42494300544F55434820544829
:1037BC00524553484F4C44004357205350454544C1
:1037CC00204D494E004357205350454544204D4110
:1037DC005800444153482D444F5420524154494FB2
:1037EC00004C455454455220535041434500574FCB
:1037FC00524420535041434500435720564F5800E4
:10380C00425245414B20494E2044454C4159004CB5
:10381C00534220534849465400555342205348497B
:10382C00465400534935333531205854414C0046E9
:0A383C00554C4C20524553455400F2
:107800000C94343C0C94513C0C94513C0C94513CE1
:107810000C94513C0C94513C0C94513C0C94513CB4
:107820000C94513C0C94513C0C94513C0C94513CA4
:107830000C94513C0C94513C0C94513C0C94513C94
:107840000C94513C0C94513C0C94513C0C94513C84
:107850000C94513C0C94513C0C94513C0C94513C74
:107860000C94513C0C94513C11241FBECFEFD8E036
:10787000DEBFCDBF11E0A0E0B1E0EAE8FFE702C063
:1078800005900D92A230B107D9F712E0A2E0B1E065
:1078900001C01D92AD30B107E1F70E942D3D0C945F
:1078A000C33F0C94003C982F95959595959595958B
:1078B000905D8F708A307CF0282F295A8091C0000B
:1078C00085FFFCCF9093C6008091C00085FFFCCF60
:1078D0002093C6000895282F205DF0CF982F809127
:1078E000C00085FFFCCF9093C6000895EF92FF92F1
:1078F0000F931F93EE24FF2487018091C00087FD22
:1079000017C00894E11CF11C011D111D81E2E8164D
:1079100081EAF80687E0080780E0180770F3E09135
:107920000401F091050109958091C00087FFE9CF1E
:107930008091C6001F910F91FF90EF9008950E94D3
:10794000763C982F8091C00085FFFCCF9093C600B5
:1079500091362CF490330CF09053892F089597555D
:10796000892F08951F930E949F3C182F0E949F3CCF
:107970001295107F810F1F9108951F93182F882350
:1079800021F00E94763C1150E1F71F9108951F935A
:10799000182F0E94763C803249F0809103018F5F5E
:1079A000809303018530C1F01F9108958091C0003C
:1079B00085FFFCCF84E18093C6008091C00085FFE5
:1079C000FCCF1093C6008091C00085FFFCCF80E102
:1079D0008093C6001F910895E0910401F091050184
:1079E00009951F9108950E94763C803241F0809164
:1079F00003018F5F80930301853081F008958091AA
:107A0000C00085FFFCCF84E18093C6008091C00058
:107A100085FFFCCF80E18093C6000895E0910401CA
:107A2000F09105010995089548EC50E08823A1F0F4
:107A30002D9A28EE33E0FA013197F1F721503040CA
:107A4000D1F72D9828EE33E0FA013197F1F7215064
:107A50003040D1F7815061F708953F924F925F9285
:107A60006F927F928F929F92AF92BF92CF92DF924E
:107A7000EF92FF920F931F93CF93DF93000082E06A
:107A80008093C00080E18093C4001092C50088E11B
:107A90008093C10086E08093C2005098589A259A3E
:107AA00081E00E94143D24E1F22E9EE1E92E85E959
:107AB000D82E0FE0C02E10E1B12EAA24A394B1E479
:107AC0009B2EA6E58A2EF2E57F2EE0E26E2E79E46B
:107AD000572E63E5462E50E5352E0E94763C8033C6
:107AE000B1F18133B9F1803409F46FC0813409F404
:107AF00076C0823409F485C0853409F488C08035A5
:107B000031F1823521F1813511F1853509F485C0D6
:107B1000863509F48DC0843609F496C0843709F49B
:107B200003C1853709F472C1863709F466C08091B4
:107B300003018F5F80930301853079F6E0910401A2
:107B4000F091050109950E94763C803351F60E9420
:107B5000F33CC3CF0E94763C803249F78091C0004D
:107B600085FFFCCFF092C6008091C00085FFFCCF5E
:107B70009092C6008091C00085FFFCCF8092C60025
:107B80008091C00085FFFCCF7092C6008091C0003C
:107B900085FFFCCF6092C6008091C00085FFFCCFBE
:107BA0005092C6008091C00085FFFCCF4092C60075
:107BB0008091C00085FFFCCF3092C6008091C0004C
:107BC00085FFFCCFB092C60088CF0E94763C8638F5
:107BD00008F4BDCF0E94763C0E94F33C7ECF0E9409
:107BE000763C803809F49CC0813809F40BC1823896
:107BF00009F430C1883909F48FC080E00E94C73C85
:107C00006CCF84E10E94BD3C0E94F33C66CF85E0CE
:107C10000E94BD3C0E94F33C60CF0E94763C809362
:107C200006010E94763C809307010E94F33C55CFE9
:107C30000E94763C803309F411C183E00E94BD3C70
:107C400080E00E94C73C49CF0E94763C80930902A5
:107C50000E94763C8093080280910C028E7F809374
:107C60000C020E94763C853409F409C18091080217
:107C700090910902892B89F000E010E00E94763C87
:107C8000F801E85FFE4F80830F5F1F4F809108026D
:107C9000909109020817190788F30E94763C8032F8
:107CA00009F045CF80910C0280FFF5C0609106017C
:107CB00070910701660F771F7093070160930601AB
:107CC000A0910802B09109021097C9F0E8E0F1E034
:107CD0009B01AD014E0F5F1FF999FECF32BD21BD53
:107CE000819180BDFA9AF99A2F5F3F4FE417F5070B
:107CF00099F76A0F7B1F70930701609306018091CB
:107D0000C00085FFFCCFF092C6008091C00085FFC7
:107D1000FCCFB092C600E1CE83E00E94C73CDDCE2E
:107D200082E00E94C73CD9CE0E94763C8093090233
:107D30000E94763C80930802809106019091070191
:107D4000880F991F90930701809306010E94763C4B
:107D5000853409F49AC080910C028E7F80930C02C6
:107D60000E94763C803209F0B8CE8091C00085FF39
:107D7000FCCFF092C600A0910802B09109021097C2
:107D8000C1F180910C02082F0170182F1695117007
:107D9000E0910601F0910701AF014F5F5F4FBA011B
:107DA00020E030E00023B1F4112339F49491809164
:107DB000C00085FFFCCF9093C6002F5F3F4FCB01E3
:107DC0000196FA012A173B0780F4BC014F5F5F4F11
:107DD000002351F3F999FECFF2BDE1BDF89A90B5B9
:107DE0008091C00085FFFCCFE6CF709307016093C0
:107DF00006018091C00085FDE5CE8091C00085FF21
:107E0000F8CFE0CE81E00E94C73C67CE0E94763C6E
:107E1000803209F08CCE8091C00085FFFCCFF092BB
:107E2000C6008091C00085FFFCCFE092C600809123
:107E3000C00085FFFCCFD092C6008091C00085FFB6
:107E4000FCCFC092C6008091C00085FFFCCFB092ED
:107E5000C60043CE80E10E94C73C3FCE0E94763CE4
:107E60000E94763C182F0E94763C112309F483C0AF
:107E7000113009F484C08FE00E94C73C2ECE80915F
:107E80000C02816080930C02F1CE80910C02816023
:107E900080930C0265CF809107018823880F880B9F
:107EA0008A2180930B028091060190910701880F2F
:107EB000991F90930701809306018091080280FF2B
:107EC00009C08091080290910902019690930902DD
:107ED00080930802F894F999FECF1127E0910601EA
:107EE000F0910701C8E0D1E0809108029091090269
:107EF000103091F40091570001700130D9F303E084
:107F000000935700E8950091570001700130D9F3B4
:107F100001E100935700E8950990199000915700EE
:107F200001700130D9F301E000935700E8951395F3
:107F3000103498F011270091570001700130D9F3E7
:107F400005E000935700E89500915700017001305B
:107F5000D9F301E100935700E8953296029709F0B2
:107F6000C7CF103011F00296E5CF11248091C000E8
:107F700085FFC5CEC8CE8EE10E94C73CAECD85E957
:0A7F80000E94C73CAACDF894FFCF81
:027F8A00800075
:040000030000780081
:00000001FF
